:100000000C942A000C9434000C9434000C943400AA
:100010000C9434000C9434000C9434000C94340090
:100020000C9434000C9434000C9434000C94340080
:100030000C9434000C9434000C9434000C94340070
:100040000C9434000C9434000C9434000C94340060
:100050000C94340011241FBECFE5D8E0DEBFCDBF25
:100060000E94B4000C94E4000C9400004423B9F105
:10007000413009F06BC0813089F028F08230C9F03E
:10008000833011F108952AB381E090E002C0880F17
:10009000991F6A95E2F7822B8ABB089527B381E006
:1000A00090E002C0880F991F6A95E2F7822B87BB08
:1000B000089524B381E090E002C0880F991F6A95EB
:1000C000E2F7822B84BB089521B381E090E002C067
:1000D000880F991F6A95E2F7822B81BB08958130C2
:1000E00091F028F08230D9F0833029F108952AB3B5
:1000F00081E090E002C0880F991F6A95E2F7809531
:1001000082238ABB089527B381E090E002C0880F64
:10011000991F6A95E2F78095822387BB089524B3DF
:1001200081E090E002C0880F991F6A95E2F7809500
:10013000822384BB089521B381E090E002C0880F40
:10014000991F6A95E2F78095822381BB08958B9A67
:10015000089592B388E0892782BB0895A79A0895ED
:1001600085B3805885BB08950E94AE000E94A70009
:100170000E94C70080E00E94DD00813019F40E94D7
:10018000A900F8CF8230B1F70E94B000F3CF40E071
:1001900064E081E00E94360040E065E081E00E947A
:1001A000360041E066E081E00E94360040E067E012
:1001B00081E00E9436006E9A08959FB1892B8FB915
:0C01C000779BFECF8FB10895F894FFCF1D
:00000001FF
